104841218546656526603210365   Informática Guilherme LTDA.       Uberaba                       MG          0111202131112021111
11Av Nelson Freire                  01078casa                  Leblon         38030000Guilherme Batista           034999540989
50183281180180750026221781418 20211106MG551  0027430000P000000001246900000000000000000000000000000000000000000000000000000000N
50183281180180750026221781418 20211106MG551  0027435405P000000001246900000000000000000000000000000000000000000000000000000000N
50183281180180750026221781418 20211106MG551  0027435405P000000001246900000000000000000000000000000000000000000000000000001900N
5418328118018075551  002743000020000107896048917676000000000010000000131990000000013200000000000000000000000000000000000000000
5418328118018075551  002743540520000107896048917676000000000010000000131990000000013200000000000000000000000000000000000000000
5418328118018075551  002743540520000107896048917676000000000010000000131990000000013200000000000000000000000000000000000001900
